:04000000E3EF0DF02D
:100800000054656D70652E204F7074696D610048ED
:10081000756D652E204F7074696D610043205465BD
:100820006D70652E00202048756D652E002E2564A4
:1008300000001EC036F01FC037F020C038F021C0C5
:1008400039F022C03AF023C03BF024C03CF025C070
:100850003DF03DBE2EEF04F031EF04F0010E32EF1B
:1008600004F0000E346E356A34503510D8B43BEFC6
:1008700004F03DEF04F04DEF04F03D1E3C1E3B1E26
:100880003A1E391E381E371E366C000E37223822AB
:1008900039223A223B223C223D22000165BF53EF20
:1008A00004F055EF04F056EF04F0669365BF63EF74
:1008B00004F0655106E16405D8B061EF04F063EF20
:1008C00004F069EF04F0000E316E010E306E6DEF32
:1008D00004F064C030F065C031F062C032F063C033
:1008E00033F034503510D8A478EF04F07AEF04F0E8
:1008F00081EF04F066A57FEF04F081EF04F084EF50
:1009000004F03206D8A03306000E3F6E1F0E3E6E76
:10091000000E8A6F08EF05F03E06D8A03F066B0E6A
:100920003E24D96E000E3F20DA6E36C001F037C08B
:1009300002F038C003F039C004F03AC005F03BC003
:1009400006F03CC007F03DC008F00A0E096E000E2C
:100950000A6E000E0B6E000E0C6E000E0D6E000E79
:100960000E6E000E0F6E000E106E64EC09F001C0EA
:1009700026F002C027F003C028F004C029F005C00B
:100980002AF006C02BF007C02CF008C02DF026C0BE
:1009900013F028C014F084EC0DF01350300FDF6E0C
:1009A0003006D8A031063206D8A0330636C001F092
:1009B00037C002F038C003F039C004F03AC005F087
:1009C0003BC006F03CC007F03DC008F00A0E096EBF
:1009D000000E0A6E000E0B6E000E0C6E000E0D6EF9
:1009E000000E0E6E000E0F6E000E106EA0EC08F0E2
:1009F00001C036F002C037F003C038F004C039F04F
:100A000005C03AF006C03BF007C03CF008C03DF01E
:100A10003FBE13EF05F03F5008E13E04D8A013EFAE
:100A200005F015EF05F046EF05F036503710381099
:100A300039103A103B103C103D10D8A422EF05F0BD
:100A400024EF05F08CEF04F031BE31EF05F03150AA
:100A500006E13004D8B02FEF05F031EF05F08CEF50
:100A600004F033BE3CEF05F0335008E13204D8A067
:100A70003CEF05F03EEF05F046EF05F0000166B3F0
:100A800044EF05F046EF05F08CEF04F034503510DC
:100A9000D8A44DEF05F04FEF05F057EF05F000013A
:100AA00066A555EF05F057EF05F075EF05F03E062A
:100AB000D8A03F0634503510D8A461EF05F063EF9D
:100AC00005F069EF05F0000E2F6E2B0E2E6E6DEF08
:100AD00005F0000E2F6E2D0E2E6E6B0E3E24D96E7D
:100AE000000E3F20DA6E2EC0DFFF1CC011F01DC0CB
:100AF00012F06B0E3E24136E000E3F20146E32C0B7
:100B000015F033C016F005EC0BF011C01CF012C04C
:100B10001DF01200000E966E000E956E000E000184
:100B2000AC6F000EA76F000EA66F000EA96F000E2F
:100B3000A86F000EAB6F000EAA6F720ED36E0F0E71
:100B4000C16E000E946EF19E19EC0EF091EC0EF059
:100B50000001A7BFB7EF05F0A75107E1020EA65DA0
:100B6000D8B0B5EF05F0B7EF05F0DEEF05F0010EF8
:100B70000A6E080E0B6EA20E0C6E000E0D6E68EC67
:100B80000BF0020E5F6E040E5E6EBA0EE82EFED7FC
:100B90005E2EFCD75F2EFAD700D00F0E0A6E080E1D
:100BA0000B6EA40E0C6E000E0D6E68EC0BF0000EBA
:100BB0000001A76F020EA66FFDEF05F0AC51D8A49F
:100BC000E4EF05F0E6EF05F0FAEF05F0A20E076E90
:100BD000000E086EA7EC0BF007C0A8F008C0A9F043
:100BE000A40E076E000E086EA7EC0BF007C0AAF06B
:100BF00008C0ABF0010E0001AC6FAC05D8A403EF48
:100C000006F005EF06F0A8EF05F0AD0E036E000E3E
:100C1000046EC4EC0DF0AD0E036E000E046EAE0E4D
:100C2000056E000E066EA8C007F0A9C008F0AAC0A5
:100C300009F0ABC00AF016EC0AF0AE0E016E000E21
:100C4000026EAAC003F0ABC004F03BEC0DF0AD0E99
:100C5000016E000E026EA8C003F0A9C004F014ECEF
:100C60000DF0980E586E000E596E2E0E5A6E080E2C
:100C70005B6EAEC05CF05D6A9BEC0CF0000E056E26
:100C8000980E066E000E076E000EA4EC0DF0980E86
:100C9000586E000E596E2D0E5A6E080E5B6E000EC9
:100CA0005D6E000E5C6E9BEC0CF0250EC4EC0CF03F
:100CB000980E586E000E596E250E5A6E080E5B6E19
:100CC0009BEC0CF0980E036E000E046E13EC0CF00F
:100CD000980E586E000E596E2E0E5A6E080E5B6EF0
:100CE000ADC05CF05D6A9BEC0CF0000E056E980EDA
:100CF000066E000E076E020EA4EC0DF0980E586EF4
:100D0000000E596E2D0E5A6E080E5B6E000E5D6E53
:100D1000000E5C6E9BEC0CF0DF0EC4EC0CF0980E39
:100D2000586E000E596E1C0E5A6E080E5B6E9BECD0
:100D30000CF0980E036E000E046E13EC0CF0060E11
:100D40005F6E130E5E6EAE0EE82EFED75E2EFCD7E3
:100D50005F2EFAD7A8EF05F000EF00F0F00E936ECB
:100D6000F00E8A6E8150F00B00016A6FF00E6A1966
:100D7000D8A4BDEF06F0BFEF06F0B2EF06F0815049
:100D8000F00B6A6FF00E6A19D8A4C9EF06F0CBEF2A
:100D900006F0B2EF06F04E0E016EEB0EE82EFED717
:100DA000012EFCD700F0F00E8A6E8150F00B00018E
:100DB0006A6FF00E6A19D8B4E0EF06F0E2EF06F0C1
:100DC000D5EF06F08150F00B6A6FF00E6A19D8B4B7
:100DD000ECEF06F0EEEF06F0D5EF06F04E0E016EEA
:100DE000EB0EE82EFED7012EFCD700F08150F00B61
:100DF00000016A6FFE0E8A6E8150F00B6A6F6AC046
:100E000068F0F00E6A19D8B408EF07F00AEF07F09F
:100E10001CEF07F0000E696F11EF07F08150F00B27
:100E2000686FF00E6819D8A418EF07F01AEF07F0F2
:100E30000EEF07F080EF07F0FD0E8A6E8150F00B89
:100E40006A6F6AC068F0F00E6A19D8B42AEF07F02A
:100E50002CEF07F03EEF07F0010E696F33EF07F05C
:100E60008150F00B686FF00E6819D8A43AEF07F0C4
:100E70003CEF07F030EF07F080EF07F0FB0E8A6ED3
:100E80008150F00B6A6F6AC068F0F00E6A19D8B42E
:100E90004CEF07F04EEF07F060EF07F0020E696FBE
:100EA00055EF07F08150F00B686FF00E6819D8A469
:100EB0005CEF07F05EEF07F052EF07F080EF07F00E
:100EC000F70E8A6E8150F00B6A6F6AC068F0F00E00
:100ED0006A19D8B46EEF07F070EF07F0FAEF06F07A
:100EE000030E696F77EF07F08150F00B686FF00E1B
:100EF0006819D8A47EEF07F080EF07F074EF07F0D1
:100F0000E00E6A19D8A487EF07F089EF07F094EF95
:100F100007F06951040DAF0EF324D96E000EF420D2
:100F2000DA6EDF50C5EF07F0D00E6A19D8A49BEF38
:100F300007F09DEF07F0A8EF07F06951040DB00E20
:100F4000F324D96E000EF420DA6EDF50C5EF07F0FF
:100F5000B00E6A19D8A4AFEF07F0B1EF07F0BCEFFD
:100F600007F06951040DB10EF324D96E000EF42080
:100F7000DA6EDF50C5EF07F06951040DB20EF324AD
:100F8000D96E000EF420DA6EDF50120042C0D9FF95
:100F900043C0DAFFDECFF6FFDDCFF7FF0800F550E4
:100FA000250AD8A4D6EF07F0D8EF07F084EF08F0B1
:100FB00042C0D9FF43C0DAFFDE2A000EDD22000E58
:100FC0000001636F000E626F62C066F063C067F07D
:100FD0006469656942C0D9FF43C0DAFFDECFF6FF1E
:100FE000DDCFF7FF0800F550640AD8B4FAEF07F038
:100FF000FCEF07F00EEF08F042C0D9FF43C0DAFF64
:10100000DECFF6FFDDCFF7FF0800F550690AD8A460
:101010000CEF08F00EEF08F04EEF08F042C0D9FFD9
:1010200043C0DAFFDE2A000EDD2244C0D9FF45C0EE
:10103000DAFFDFCF46F0020EDE26DFCF47F0000EEC
:10104000DD2246C0D9FF47C0DAFFDECF48F0DDCF52
:1010500049F0000E49BEFF0E4A6E4B6E4C6E4D6E4F
:101060004E6E4F6E40C01CF041C01DF048C01EF0D7
:1010700049C01FF04AC020F04BC021F04CC022F004
:101080004DC023F04EC024F04FC025F019EC04F001
:101090001CC040F01DC041F09FEF08F042C0D9FFD6
:1010A00043C0DAFFDECFF6FFDDCFF7FF0800F550D3
:1010B000250AD8A45EEF08F060EF08F077EF08F09B
:1010C00042C0D9FF43C0DAFFDE2A000EDD22000E47
:1010D000026E250E016E40C003F041C004F0A0EC8A
:1010E0000AF0000E416E010E406E9FEF08F042C004
:1010F000D9FF43C0DAFFDE2A000EDD22000E416E6A
:10110000000E406E9FEF08F042C0D9FF43C0DAFFE7
:10111000DECFF6FFDDCFF7FF0800F550016E026A63
:1011200040C003F041C004F0A0EC0AF042C0D9FF77
:1011300043C0DAFFDE2A000EDD2271EF08F0120054
:10114000000E126E10BEA9EF08F0A7EF08F0BBEF7B
:1011500008F0101E0F1E0E1E0D1E0C1E0B1E0A1E6A
:10116000096C000E0A220B220C220D220E220F22E5
:101170001022010E126E08BEC2EF08F0C0EF08F098
:10118000D4EF08F0081E071E061E051E041E031ECF
:10119000021E016C000E02220322042205220622F6
:1011A00007220822010E121A20EE13F0070EDE6A43
:1011B000E806FDE209500A100B100C100D100E107D
:1011C0000F101010D8B4E7EF08F0E9EF08F03BEF8C
:1011D00009F0010E116EF7EF08F0D89009360A36C3
:1011E0000B360C360D360E360F361036112A10AE71
:1011F000FCEF08F0FEEF08F0EDEF08F0D8901336A2
:101200001436153616361736183619361A3609506A
:10121000015C0A5002580B5003580C5004580D50F2
:1012200005580E5006580F50075810500858D8A0AF
:101230001CEF09F01EEF09F02FEF09F00950015ED5
:101240000A50025A0B50035A0C50045A0D50055ABA
:101250000E50065A0F50075A1050085A1380D89053
:1012600010320F320E320D320C320B320A3209328A
:10127000112EFEEF08F01250D8B441EF09F043EF01
:1012800009F053EF09F01A1E191E181E171E161E1C
:10129000151E141E136C000E14221522162217227E
:1012A000182219221A2213C001F014C002F015C02E
:1012B00003F016C004F017C005F018C006F019C0FE
:1012C00007F01AC008F01200000E126E08BE6DEF93
:1012D00009F06BEF09F07FEF09F0081E071E061EEC
:1012E000051E041E031E021E016C000E02220322B4
:1012F00004220522062207220822010E126E10BEC9
:1013000086EF09F084EF09F096EF09F0101E0F1E2A
:101310000E1E0D1E0C1E0B1E0A1E096C000E0A224C
:101320000B220C220D220E220F22102209500A102D
:101330000B100C100D100E100F101010D8B4A3EFDE
:1013400009F0A5EF09F0EDEF09F0010E116EB3EF12
:1013500009F0D89009360A360B360C360D360E36A3
:101360000F361036112A10AEB8EF09F0BAEF09F0B7
:10137000A9EF09F00950015C0A5002580B500358BC
:101380000C5004580D5005580E5006580F50075871
:1013900010500858D8A0CFEF09F0D1EF09F0E1EFD5
:1013A00009F00950015E0A50025A0B50035A0C50C2
:1013B000045A0D50055A0E50065A0F50075A105035
:1013C000085AD89010320F320E320D320C320B32D6
:1013D0000A320932112EBAEF09F01250D8B4F3EFE5
:1013E00009F0F5EF09F005EF0AF0081E071E061ECA
:1013F000051E041E031E021E016C000E02220322A3
:101400000422052206220722082201C001F002C0A0
:1014100002F003C003F004C004F005C005F006C0EC
:1014200006F007C007F008C008F01200010E126EA7
:10143000010E136EFE0E0B6EFF0E0C6E07C00DF04C
:1014400008C00EF00B500D260C500E2203C0D9FF21
:1014500004C0DAFFDF500F6E106A0D500F5C1050A1
:10146000800A116E0E50800A1158D8A03AEF0AF087
:101470003CEF0AF058EF0AF003C0D9FF04C0DAFFCE
:10148000DF500B6E0C6A020E07240D6E000E082052
:101490000E6E0B500D5C0E50800A0F6E0C50800AC1
:1014A0000F58D8B056EF0AF058EF0AF05AEF0AF08A
:1014B000000E126EFE0E0B6EFF0E0C6E09C00DF0CC
:1014C0000AC00EF00B500D260C500E2205C0D9FF9D
:1014D00006C0DAFFDF500F6E106A0D500F5C10501F
:1014E000800A116E0E50800A1158D8A07AEF0AF0C7
:1014F0007CEF0AF098EF0AF005C0D9FF06C0DAFFCA
:10150000DF500B6E0C6A020E09240D6E000E0A20CD
:101510000E6E0B500D5C0E50800A0F6E0C50800A40
:101520000F58D8B096EF0AF098EF0AF09AEF0AF049
:10153000000E136E13C001F0125070EC0CF012008C
:1015400003500410D8B4A7EF0AF0A9EF0AF0B2EFE5
:101550000AF003500410D8A4B0EF0AF0B2EF0AF07A
:10156000B7EF0AF0015095EC0EF004EF0BF020EE0F
:1015700009F00350D9260450DA22DE50DE10D8B428
:10158000C4EF0AF0C6EF0AF0E1EF0AF020EE09F02E
:101590000350D9260450DA2210EE03F00350E1265E
:1015A0000450E222DE50E65CE650800A096EDE500E
:1015B000800A0958D8B0DFEF0AF0E1EF0AF004EF33
:1015C0000BF020EE03F00350D9260450DA22DECFD0
:1015D00005F0DDCF06F003C0D9FF04C0DAFFDECF8F
:1015E00007F0DDCF08F005500724D96E065008201B
:1015F000DA6E01C0DFFF20EE03F00350D92604505D
:10160000DA22DE2A000EDD221200000166A10BEFB5
:101610000BF00DEF0BF017EF0BF013C00AF014C036
:101620000BF011C00CF012C00DF062EC0DF016BE04
:101630001CEF0BF01EEF0BF024EF0BF015C01AF0AF
:1016400016C01BF028EF0BF0000E1B6E000E1A6E7A
:10165000000E196E000E186E3AEF0BF0000E026EBF
:10166000200E016E11C003F012C004F0A0EC0AF0CD
:10167000184A192A1A50185C1950800A176E1B5004
:10168000800A1758D8A047EF0BF049EF0BF02EEF68
:101690000BF0000166B14FEF0BF051EF0BF05BEF79
:1016A0000BF013C00AF014C00BF011C00CF012C004
:1016B0000DF062EC0DF013C001F014C002F0FEEC6E
:1016C0000DF01A500124116E1B500220126E1200F0
:1016D00049EC0EF0000E056E0AC006F00BC007F0D4
:1016E000000EA4EC0DF0C00EECEC0CF0000E126E2F
:1016F000000E116EAEEC06F0106E1050C4EC0CF043
:1017000011500C24D96E12500D20DA6E10C0DFFF7C
:10171000114A122A12BE96EF0BF0125009E1020E86
:10172000115CD8A096EF0BF098EF0BF07AEF0BF06E
:10173000020E0F6E040E0E6EBA0EE82EFED70E2E9F
:10174000FCD70F2EFAD700D049EC0EF01200000E95
:101750000B6E000E0A6E000E0D6E000E0C6E07C0B2
:10176000D9FF08C0DAFFDF50096ED00E09240E6ED3
:101770000F6AFF0E0F2220EE01F00750D926085005
:10178000DA22DF50096ED00E09240A6E0B6AFF0EB2
:101790000B220EC001F00FC002F0000E046E0A0E04
:1017A000036E5EEC0EF001C00EF002C00FF00A50A6
:1017B0000E240C6E0B500F200D6E0CC007F00DC0E8
:1017C00008F0120052C056F053C057F0000E00014E
:1017D000616F000E606F00EF0CF050C040F051C020
:1017E00041F0560E426E000E436E54C044F055C098
:1017F00045F0C6EC07F040500001602741506123DE
:1018000056C0F6FF57C0F7FF0800F5500009D8A4EE
:101810000CEF0CF00EEF0CF0EDEF0BF060C050F0A1
:1018200061C051F0120029EF0CF003C0F6FF04C0B4
:10183000F7FFF86A070EF76403D00800F55005D0EB
:10184000F6CFE1FFF7CFE2FFE750C4EC0CF0034A1C
:10185000042A03C0F6FF04C0F7FFF86A070EF76416
:1018600003D00800F55005D0F6CFE1FFF7CFE2FF37
:10187000E7500009D8A43FEF0CF041EF0CF015EF52
:101880000CF01200000E026E000E016E80A04BEFF5
:101890000CF04DEF0CF046EF0CF0140EE82EFED7D6
:1018A00080A055EF0CF057EF0CF05BEF0CF0D880F8
:1018B00002365EEF0CF002500224026E80B063EF3D
:1018C0000CF065EF0CF05EEF0CF0012A070E0164DE
:1018D0006CEF0CF06EEF0CF046EF0CF002501200C3
:1018E000026E91EC0EF00250D8A479EF0CF07BEF71
:1018F0000CF086EF0CF00150D8A481EF0CF083EFD0
:101900000CF086EF0CF08D809AEF0CF00250D8B4FA
:101910008CEF0CF08EEF0CF096EF0CF00150D8A489
:1019200094EF0CF096EF0CF099EF0CF08D829AEF9B
:101930000CF08D8412005C0E00018B6F000E8C6F1A
:1019400058C08DF059C08EF0000E916F000E906F50
:10195000000E976F000E966F8D0E506E000E516E3A
:101960005AC052F05BC053F08B0E546E000E556E91
:10197000E2EC0BF0000190515824D96E915159209E
:10198000DA6E000EDF6E1200026E02C001F0F00E81
:1019900001168C500F0B01108C6E8C808C8200F025
:1019A0008C92030E016E980EE82EFED7012EFCD706
:1019B00002C001F0013AF00E01168C500F0B01101D
:1019C0008C6E8C8200F08C92080E016ECA0EE82E8E
:1019D000FED7012EFCD71200026E02C001F0F00EFD
:1019E00001168C500F0B01108C6E8C908C8200F0C5
:1019F0008C92030E016E980EE82EFED7012EFCD7B6
:101A000002C001F0013AF00E01168C500F0B0110CC
:101A10008C6E8C8200F08C92080E016ECA0EE82E3D
:101A2000FED7012EFCD71200FE0E056EFF0E066ECD
:101A300003C007F004C008F005500726065008222E
:101A400001C0D9FF02C0DAFFDF50096E0A6A0750F1
:101A5000095C0A50800A0B6E0850800A0B58D8B0F7
:101A600034EF0DF036EF0DF039EF0DF08B8E3AEFCD
:101A70000DF08B9E1200FE0E056EFF0E066E03C06B
:101A800007F004C008F0055007260650082201C0E0
:101A9000D9FF02C0DAFFDF50096E0A6A0750095CFD
:101AA0000A50800A0B6E0850800A0B58D8B05BEFC2
:101AB0000DF05DEF0DF060EF0DF08B8061EF0DF03C
:101AC0008B901200000E106E000E0F6E73EF0DF073
:101AD0000EC001F0026A0CC003F00DC004F0A0ECCF
:101AE0000AF00F4A102A0F500A24D96E10500B200A
:101AF000DA6EDF500E6E0E50D8A481EF0DF083EF3A
:101B00000DF068EF0DF0120014BE91EF0DF01450BF
:101B100006E11304D8B08FEF0DF091EF0DF09FEFB9
:101B20000DF013C015F014C016F0151E161E154A40
:101B3000162A15C013F016C014F0A3EF0DF013C051
:101B400013F014C014F01200086E020E0860ABEF20
:101B50000DF0ADEF0DF0B6EF0DF005500F0B800955
:101B6000096E0950ECEC0CF0BDEF0DF005500F0BB9
:101B7000C009096E0950ECEC0CF006C003F007C078
:101B800004F013EC0CF0120081EC0EF033EC0EF0CC
:101B900042EC0CF0056E42EC0CF042EC0CF0066EE0
:101BA00042EC0CF042EC0CF003C0D9FF04C0DAFFA9
:101BB00006C0DFFF20EE01F00350D9260450DA22E0
:101BC00005C0DFFF1200E20EF66E1C0EF76E000E6F
:101BD000F86E00EEAFF010EE20F00900F5CFEEFF4A
:101BE000E550E150FAE100EE60F02B0EEE6AE806F7
:101BF000FDE1000EF86E00018AEF05F001C003F070
:101C000002C004F006EF0EF0014A022A01C0D9FF1B
:101C100002C0DAFFDF50D8A410EF0EF012EF0EF082
:101C200004EF0EF00350015C016E04500258026E86
:101C30001200000E956E270E036EF50EE82EFED7ED
:101C4000032EFCD700F0020EECEC0CF0280EECECAE
:101C50000CF0010EECEC0CF00C0EECEC0CF0060EA3
:101C6000ECEC0CF0120080B038EF0EF03AEF0EF012
:101C700033EF0EF080A03FEF0EF041EF0EF03AEFA1
:101C80000EF080B046EF0EF048EF0EF041EF0EF090
:101C90001200010EECEC0CF0080E036ECA0EE82EDA
:101CA000FED7032EFCD7800EECEC0CF0030E036E77
:101CB000980EE82EFED7032EFCD712000150030227
:101CC000F3CF05F0F4CF06F001500402F3500626DE
:101CD00002500302F350062605C001F006C002F0D0
:101CE00012003132332F3435362A3738392D2A3025
:101CF000232B3132334134353642373839432A3099
:101D00002344929089902F0E016EC00EE82EFED7CC
:101D1000012EFCD789800D0EE82EFED700F09280B0
:0C1D200012008D928D908D941200120024
:020000040020DA
:08000000FFFFFFFFFFFFFFFF00
:020000040030CA
:0E00000000091F1EFF8181FF0FC00FE00F409F
:00000001FF
