:020000040000FA
:04000000E8EF0DF028
:100800000054656D70652E204F7074696D61002015
:100810002048756D652E41637475616C0048756D77
:10082000652E204F7074696D610054656D70652E82
:1008300041637475616C002E256400001EC036F0A3
:100840001FC037F020C038F021C039F022C03AF084
:1008500023C03BF024C03CF025C03DF03DBE33EF4B
:1008600004F036EF04F0010E37EF04F0000E346EA2
:10087000356A34503510D8B440EF04F042EF04F03C
:1008800052EF04F03D1E3C1E3B1E3A1E391E381E20
:10089000371E366C000E3722382239223A223B228C
:1008A0003C223D22000165BF58EF04F05AEF04F0EE
:1008B0005BEF04F0669365BF68EF04F0655106E1F5
:1008C0006405D8B066EF04F068EF04F06EEF04F052
:1008D000000E316E010E306E72EF04F064C030F025
:1008E00065C031F062C032F063C033F0345035106F
:1008F000D8A47DEF04F07FEF04F086EF04F066A546
:1009000084EF04F086EF04F089EF04F03206D8A0FB
:100910003306000E3F6E1F0E3E6E000E8A6F0DEF07
:1009200005F03E06D8A03F066B0E3E24D96E000EA1
:100930003F20DA6E36C001F037C002F038C003F055
:1009400039C004F03AC005F03BC006F03CC007F0E7
:100950003DC008F00A0E096E000E0A6E000E0B6E06
:10096000000E0C6E000E0D6E000E0E6E000E0F6E61
:10097000000E106E69EC09F001C026F002C027F0ED
:1009800003C028F004C029F005C02AF006C02BF0EF
:1009900007C02CF008C02DF026C013F028C014F0BA
:1009A00089EC0DF01350300FDF6E3006D8A0310601
:1009B0003206D8A0330636C001F037C002F038C086
:1009C00003F039C004F03AC005F03BC006F03CC06B
:1009D00007F03DC008F00A0E096E000E0A6E000E08
:1009E0000B6E000E0C6E000E0D6E000E0E6E000EE5
:1009F0000F6E000E106EA5EC08F001C036F002C0BC
:100A000037F003C038F004C039F005C03AF006C032
:100A10003BF007C03CF008C03DF03FBE18EF05F0CA
:100A20003F5008E13E04D8A018EF05F01AEF05F09A
:100A30004BEF05F036503710381039103A103B1094
:100A40003C103D10D8A427EF05F029EF05F091EFF9
:100A500004F031BE36EF05F0315006E13004D8B075
:100A600034EF05F036EF05F091EF04F033BE41EFBF
:100A700005F0335008E13204D8A041EF05F043EF10
:100A800005F04BEF05F0000166B349EF05F04BEFC1
:100A900005F091EF04F034503510D8A452EF05F072
:100AA00054EF05F05CEF05F0000166A55AEF05F084
:100AB0005CEF05F07AEF05F03E06D8A03F06345013
:100AC0003510D8A466EF05F068EF05F06EEF05F07D
:100AD000000E2F6E2B0E2E6E72EF05F0000E2F6E95
:100AE0002D0E2E6E6B0E3E24D96E000E3F20DA6E58
:100AF0002EC0DFFF1CC011F01DC012F06B0E3E2493
:100B0000136E000E3F20146E32C015F033C016F085
:100B10000AEC0BF011C01CF012C01DF01200000E08
:100B2000966E000E956E000E0001AC6F000EA76F62
:100B3000000EA66F000EA96F000EA86F000EAB6F1F
:100B4000000EAA6F720ED36E0F0EC16E000E946E61
:100B5000F19E1EEC0EF096EC0EF00001A7BFBCEF6C
:100B600005F0A75107E1020EA65DD8B0BAEF05F077
:100B7000BCEF05F0E3EF05F0010E0A6E080E0B6EF8
:100B8000A20E0C6E000E0D6E6DEC0BF0020E5F6E81
:100B9000040E5E6EBA0EE82EFED75E2EFCD75F2ED8
:100BA000FAD700D01D0E0A6E080E0B6EA40E0C6E46
:100BB000000E0D6E6DEC0BF0000E0001A76F020E23
:100BC000A66F02EF06F0AC51D8A4E9EF05F0EBEF09
:100BD00005F0FFEF05F0A20E076E000E086EACECFC
:100BE0000BF007C0A8F008C0A9F0A40E076E000E15
:100BF000086EACEC0BF007C0AAF008C0ABF0010E19
:100C00000001AC6FAC05D8A408EF06F00AEF06F0BF
:100C1000ADEF05F0AD0E036E000E046EC9EC0DF0E5
:100C2000AD0E036E000E046EAE0E056E000E066E67
:100C3000A8C007F0A9C008F0AAC009F0ABC00AF02C
:100C40001BEC0AF0AE0E016E000E026EAAC003F09D
:100C5000ABC004F040EC0DF0AD0E016E000E026E64
:100C6000A8C003F0A9C004F019EC0DF0980E586E5E
:100C7000000E596E380E5A6E080E5B6EAEC05CF0F8
:100C80005D6AA0EC0CF0000E056E980E066E000E6C
:100C9000076E000EA9EC0DF0980E586E000E596EFE
:100CA000370E5A6E080E5B6E000E5D6E000E5C6EA7
:100CB000A0EC0CF0250EC9EC0CF0980E586E000E4E
:100CC000596E0F0E5A6E080E5B6EA0EC0CF0980E6B
:100CD000036E000E046E18EC0CF0980E586E000EA9
:100CE000596E380E5A6E080E5B6EADC05CF05D6AD0
:100CF000A0EC0CF0000E056E980E066E000E076E4E
:100D0000020EA9EC0DF0980E586E000E596E370EBB
:100D10005A6E080E5B6E000E5D6E000E5C6EA0ECEF
:100D20000CF0DF0EC9EC0CF0980E586E000E596EE8
:100D30002A0E5A6E080E5B6EA0EC0CF0980E036E35
:100D4000000E046E18EC0CF0060E5F6E130E5E6E55
:100D5000AE0EE82EFED75E2EFCD75F2EFAD7ADEF93
:100D600005F000EF00F0F00E936EF00E8A6E8150E9
:100D7000F00B00016A6FF00E6A19D8A4C2EF06F0FA
:100D8000C4EF06F0B7EF06F08150F00B6A6FF00E7B
:100D90006A19D8A4CEEF06F0D0EF06F0B7EF06F050
:100DA0004E0E016EEB0EE82EFED7012EFCD700F0A2
:100DB000F00E8A6E8150F00B00016A6FF00E6A1916
:100DC000D8B4E5EF06F0E7EF06F0DAEF06F0815071
:100DD000F00B6A6FF00E6A19D8B4F1EF06F0F3EF7A
:100DE00006F0DAEF06F04E0E016EEB0EE82EFED79F
:100DF000012EFCD700F08150F00B00016A6FFE0E4F
:100E00008A6E8150F00B6A6F6AC068F0F00E6A1942
:100E1000D8B40DEF07F00FEF07F021EF07F0000E49
:100E2000696F16EF07F08150F00B686FF00E6819CC
:100E3000D8A41DEF07F01FEF07F013EF07F085EFC1
:100E400007F0FD0E8A6E8150F00B6A6F6AC068F081
:100E5000F00E6A19D8B42FEF07F031EF07F043EF27
:100E600007F0010E696F38EF07F08150F00B686FE3
:100E7000F00E6819D8A43FEF07F041EF07F035EF07
:100E800007F085EF07F0FB0E8A6E8150F00B6A6F5A
:100E90006AC068F0F00E6A19D8B451EF07F053EF4A
:100EA00007F065EF07F0020E696F5AEF07F0815007
:100EB000F00B686FF00E6819D8A461EF07F063EFCC
:100EC00007F057EF07F085EF07F0F70E8A6E8150B5
:100ED000F00B6A6F6AC068F0F00E6A19D8B473EF4D
:100EE00007F075EF07F0FFEF06F0030E696F7CEF78
:100EF00007F08150F00B686FF00E6819D8A483EFEB
:100F000007F085EF07F079EF07F0E00E6A19D8A433
:100F10008CEF07F08EEF07F099EF07F06951040DA1
:100F2000AF0EF324D96E000EF420DA6EDF50CAEF54
:100F300007F0D00E6A19D8A4A0EF07F0A2EF07F0CF
:100F4000ADEF07F06951040DB00EF324D96E000E19
:100F5000F420DA6EDF50CAEF07F0B00E6A19D8A499
:100F6000B4EF07F0B6EF07F0C1EF07F06951040DD9
:100F7000B10EF324D96E000EF420DA6EDF50CAEF02
:100F800007F06951040DB20EF324D96E000EF4205F
:100F9000DA6EDF50120042C0D9FF43C0DAFFDECF65
:100FA000F6FFDDCFF7FF0800F550250AD8A4DBEFE8
:100FB00007F0DDEF07F089EF08F042C0D9FF43C02A
:100FC000DAFFDE2A000EDD22000E0001636F000E44
:100FD000626F62C066F063C067F06469656942C0B1
:100FE000D9FF43C0DAFFDECFF6FFDDCFF7FF080001
:100FF000F550640AD8B4FFEF07F001EF08F013EFE3
:1010000008F042C0D9FF43C0DAFFDECFF6FFDDCFE4
:10101000F7FF0800F550690AD8A411EF08F013EFA4
:1010200008F053EF08F042C0D9FF43C0DAFFDE2AD0
:10103000000EDD2244C0D9FF45C0DAFFDFCF46F005
:10104000020EDE26DFCF47F0000EDD2246C0D9FFBC
:1010500047C0DAFFDECF48F0DDCF49F0000E49BED1
:10106000FF0E4A6E4B6E4C6E4D6E4E6E4F6E40C014
:101070001CF041C01DF048C01EF049C01FF04AC01E
:1010800020F04BC021F04CC022F04DC023F04EC0E8
:1010900024F04FC025F01EEC04F01CC040F01DC031
:1010A00041F0A4EF08F042C0D9FF43C0DAFFDECF21
:1010B000F6FFDDCFF7FF0800F550250AD8A463EF4F
:1010C00008F065EF08F07CEF08F042C0D9FF43C09C
:1010D000DAFFDE2A000EDD22000E026E250E016E02
:1010E00040C003F041C004F0A5EC0AF0000E416ED0
:1010F000010E406EA4EF08F042C0D9FF43C0DAFFF2
:10110000DE2A000EDD22000E416E000E406EA4EFBE
:1011100008F042C0D9FF43C0DAFFDECFF6FFDDCFD3
:10112000F7FF0800F550016E026A40C003F041C0AD
:1011300004F0A5EC0AF042C0D9FF43C0DAFFDE2A72
:10114000000EDD2276EF08F01200000E126E10BEC7
:10115000AEEF08F0ACEF08F0C0EF08F0101E0F1E65
:101160000E1E0D1E0C1E0B1E0A1E096C000E0A22FE
:101170000B220C220D220E220F221022010E126EC3
:1011800008BEC7EF08F0C5EF08F0D9EF08F0081E59
:10119000071E061E051E041E031E021E016C000E05
:1011A0000222032204220522062207220822010E1F
:1011B000121A20EE13F0070EDE6AE806FDE209506F
:1011C0000A100B100C100D100E100F101010D8B4C8
:1011D000ECEF08F0EEEF08F040EF09F0010E116EB1
:1011E000FCEF08F0D89009360A360B360C360D366F
:1011F0000E360F361036112A10AE01EF09F003EF4C
:1012000009F0F2EF08F0D89013361436153616367A
:101210001736183619361A360950015C0A5002582A
:101220000B5003580C5004580D5005580E500658DA
:101230000F50075810500858D8A021EF09F023EF9D
:1012400009F034EF09F00950015E0A50025A0B50C0
:10125000035A0C50045A0D50055A0E50065A0F509E
:10126000075A1050085A1380D89010320F320E329D
:101270000D320C320B320A320932112E03EF09F013
:101280001250D8B446EF09F048EF09F058EF09F0D2
:101290001A1E191E181E171E161E151E141E136C5C
:1012A000000E1422152216221722182219221A22A1
:1012B00013C001F014C002F015C003F016C004F012
:1012C00017C005F018C006F019C007F01AC008F0E2
:1012D0001200000E126E08BE72EF09F070EF09F0F6
:1012E00084EF09F0081E071E061E051E041E031EBD
:1012F000021E016C000E0222032204220522062295
:1013000007220822010E126E10BE8BEF09F089EF42
:1013100009F09BEF09F0101E0F1E0E1E0D1E0C1E75
:101320000B1E0A1E096C000E0A220B220C220D2233
:101330000E220F22102209500A100B100C100D1053
:101340000E100F101010D8B4A8EF09F0AAEF09F092
:10135000F2EF09F0010E116EB8EF09F0D8900936DE
:101360000A360B360C360D360E360F361036112A6D
:1013700010AEBDEF09F0BFEF09F0AEEF09F0095074
:10138000015C0A5002580B5003580C5004580D5081
:1013900005580E5006580F50075810500858D8A03E
:1013A000D4EF09F0D6EF09F0E6EF09F00950015E3D
:1013B0000A50025A0B50035A0C50045A0D50055A49
:1013C0000E50065A0F50075A1050085AD890103233
:1013D0000F320E320D320C320B320A320932112E1C
:1013E000BFEF09F01250D8B4F8EF09F0FAEF09F0A6
:1013F0000AEF0AF0081E071E061E051E041E031E25
:10140000021E016C000E0222032204220522062283
:101410000722082201C001F002C002F003C003F05D
:1014200004C004F005C005F006C006F007C007F0D0
:1014300008C008F01200010E126E010E136EFE0EAF
:101440000B6EFF0E0C6E07C00DF008C00EF00B50B7
:101450000D260C500E2203C0D9FF04C0DAFFDF5066
:101460000F6E106A0D500F5C1050800A116E0E50F6
:10147000800A1158D8A03FEF0AF041EF0AF05DEF63
:101480000AF003C0D9FF04C0DAFFDF500B6E0C6A0C
:10149000020E07240D6E000E08200E6E0B500D5C20
:1014A0000E50800A0F6E0C50800A0F58D8B05BEFB8
:1014B0000AF05DEF0AF05FEF0AF0000E126EFE0E0A
:1014C0000B6EFF0E0C6E09C00DF00AC00EF00B5033
:1014D0000D260C500E2205C0D9FF06C0DAFFDF50E2
:1014E0000F6E106A0D500F5C1050800A116E0E5076
:1014F000800A1158D8A07FEF0AF081EF0AF09DEF23
:101500000AF005C0D9FF06C0DAFFDF500B6E0C6A87
:10151000020E09240D6E000E0A200E6E0B500D5C9B
:101520000E50800A0F6E0C50800A0F58D8B09BEFF7
:101530000AF09DEF0AF09FEF0AF0000E136E13C041
:1015400001F0125075EC0CF0120003500410D8B4E6
:10155000ACEF0AF0AEEF0AF0B7EF0AF00350041058
:10156000D8A4B5EF0AF0B7EF0AF0BCEF0AF00150CB
:101570009AEC0EF009EF0BF020EE09F00350D9269B
:101580000450DA22DE50DE10D8B4C9EF0AF0CBEFF7
:101590000AF0E6EF0AF020EE09F00350D9260450D5
:1015A000DA2210EE03F00350E1260450E222DE506E
:1015B000E65CE650800A096EDE50800A0958D8B011
:1015C000E4EF0AF0E6EF0AF009EF0BF020EE03F08B
:1015D0000350D9260450DA22DECF05F0DDCF06F025
:1015E00003C0D9FF04C0DAFFDECF07F0DDCF08F07B
:1015F00005500724D96E06500820DA6E01C0DFFFBF
:1016000020EE03F00350D9260450DA22DE2A000E21
:10161000DD221200000166A110EF0BF012EF0BF0BB
:101620001CEF0BF013C00AF014C00BF011C00CF04B
:1016300012C00DF067EC0DF016BE21EF0BF023EF9A
:101640000BF029EF0BF015C01AF016C01BF02DEFB0
:101650000BF0000E1B6E000E1A6E000E196E000EBF
:10166000186E3FEF0BF0000E026E200E016E11C0DF
:1016700003F012C004F0A5EC0AF0184A192A1A5017
:10168000185C1950800A176E1B50800A1758D8A092
:101690004CEF0BF04EEF0BF033EF0BF0000166B1A7
:1016A00054EF0BF056EF0BF060EF0BF013C00AF0A5
:1016B00014C00BF011C00CF012C00DF067EC0DF06F
:1016C00013C001F014C002F003EC0EF01A50012414
:1016D000116E1B500220126E12004EEC0EF0000E26
:1016E000056E0AC006F00BC007F0000EA9EC0DF065
:1016F000C00EF1EC0CF0000E126E000E116EB3EC89
:1017000006F0106E1050C9EC0CF011500C24D96E7C
:1017100012500D20DA6E10C0DFFF114A122A12BEDD
:101720009BEF0BF0125009E1020E115CD8A09BEF69
:101730000BF09DEF0BF07FEF0BF0020E0F6E040E1F
:101740000E6EBA0EE82EFED70E2EFCD70F2EFAD74D
:1017500000D04EEC0EF01200000E0B6E000E0A6E62
:10176000000E0D6E000E0C6E07C0D9FF08C0DAFF28
:10177000DF50096ED00E09240E6E0F6AFF0E0F2285
:1017800020EE01F00750D9260850DA22DF50096E0A
:10179000D00E09240A6E0B6AFF0E0B220EC001F058
:1017A0000FC002F0000E046E0A0E036E63EC0EF022
:1017B00001C00EF002C00FF00A500E240C6E0B5048
:1017C0000F200D6E0CC007F00DC008F0120052C0C3
:1017D00056F053C057F0000E0001616F000E606FAD
:1017E00005EF0CF050C040F051C041F0560E426E73
:1017F000000E436E54C044F055C045F0CBEC07F0EA
:101800004050000160274150612356C0F6FF57C089
:10181000F7FF0800F5500009D8A411EF0CF013EF02
:101820000CF0F2EF0BF060C050F061C051F012000C
:101830002EEF0CF003C0F6FF04C0F7FFF86A070EA6
:10184000F76403D00800F55005D0F6CFE1FFF7CFDD
:10185000E2FFE750C9EC0CF0034A042A03C0F6FF8C
:1018600004C0F7FFF86A070EF76403D00800F550CC
:1018700005D0F6CFE1FFF7CFE2FFE7500009D8A48B
:1018800044EF0CF046EF0CF01AEF0CF01200000ED3
:10189000026E000E016E80A050EF0CF052EF0CF0C3
:1018A0004BEF0CF0140EE82EFED780A05AEF0CF090
:1018B0005CEF0CF060EF0CF0D880023663EF0CF0B8
:1018C00002500224026E80B068EF0CF06AEF0CF058
:1018D00063EF0CF0012A070E016471EF0CF073EF57
:1018E0000CF04BEF0CF002501200026E96EC0EF072
:1018F0000250D8A47EEF0CF080EF0CF08BEF0CF0D0
:101900000150D8A486EF0CF088EF0CF08BEF0CF0B0
:101910008D809FEF0CF00250D8B491EF0CF093EF54
:101920000CF09BEF0CF00150D8A499EF0CF09BEF5A
:101930000CF09EEF0CF08D829FEF0CF08D84120066
:101940005C0E00018B6F000E8C6F58C08DF059C07B
:101950008EF0000E916F000E906F000E976F000ECC
:10196000966F8D0E506E000E516E5AC052F05BC0D5
:1019700053F08B0E546E000E556EE7EC0BF0000129
:1019800090515824D96E91515920DA6E000EDF6EB5
:101990001200026E02C001F0F00E01168C500F0B07
:1019A00001108C6E8C808C8200F08C92030E016E84
:1019B000980EE82EFED7012EFCD702C001F0013AA6
:1019C000F00E01168C500F0B01108C6E8C8200F003
:1019D0008C92080E016ECA0EE82EFED7012EFCD79F
:1019E0001200026E02C001F0F00E01168C500F0BB7
:1019F00001108C6E8C908C8200F08C92030E016E24
:101A0000980EE82EFED7012EFCD702C001F0013A55
:101A1000F00E01168C500F0B01108C6E8C8200F0B2
:101A20008C92080E016ECA0EE82EFED7012EFCD74E
:101A30001200FE0E056EFF0E066E03C007F004C016
:101A400008F0055007260650082201C0D9FF02C041
:101A5000DAFFDF50096E0A6A0750095C0A50800AF3
:101A60000B6E0850800A0B58D8B039EF0DF03BEFE1
:101A70000DF03EEF0DF08B8E3FEF0DF08B9E1200C0
:101A8000FE0E056EFF0E066E03C007F004C008F0E0
:101A9000055007260650082201C0D9FF02C0DAFF10
:101AA000DF50096E0A6A0750095C0A50800A0B6E03
:101AB0000850800A0B58D8B060EF0DF062EF0DF0BF
:101AC00065EF0DF08B8066EF0DF08B901200000E2D
:101AD000106E000E0F6E78EF0DF00EC001F0026A6E
:101AE0000CC003F00DC004F0A5EC0AF00F4A102A58
:101AF0000F500A24D96E10500B20DA6EDF500E6E94
:101B00000E50D8A486EF0DF088EF0DF06DEF0DF0BC
:101B1000120014BE96EF0DF0145006E11304D8B075
:101B200094EF0DF096EF0DF0A4EF0DF013C015F04B
:101B300014C016F0151E161E154A162A15C013F0ED
:101B400016C014F0A8EF0DF013C013F014C014F079
:101B50001200086E020E0860B0EF0DF0B2EF0DF04B
:101B6000BBEF0DF005500F0B8009096E0950F1EC29
:101B70000CF0C2EF0DF005500F0BC009096E0950B3
:101B8000F1EC0CF006C003F007C004F018EC0CF008
:101B9000120086EC0EF038EC0EF047EC0CF0056EFF
:101BA00047EC0CF047EC0CF0066E47EC0CF047EC01
:101BB0000CF003C0D9FF04C0DAFF06C0DFFF20EE3F
:101BC00001F00350D9260450DA2205C0DFFF1200CD
:101BD000EC0EF66E1C0EF76E000EF86E00EEAFF017
:101BE00010EE20F00900F5CFEEFFE550E150FAE1EC
:101BF00000EE60F02B0EEE6AE806FDE1000EF86ED6
:101C000000018FEF05F001C003F002C004F00BEFFC
:101C10000EF0014A022A01C0D9FF02C0DAFFDF50EC
:101C2000D8A415EF0EF017EF0EF009EF0EF00350E9
:101C3000015C016E04500258026E1200000E956E97
:101C4000270E036EF50EE82EFED7032EFCD700F00C
:101C5000020EF1EC0CF0280EF1EC0CF0010EF1ECA0
:101C60000CF00C0EF1EC0CF0060EF1EC0CF0120086
:101C700080B03DEF0EF03FEF0EF038EF0EF080A099
:101C800044EF0EF046EF0EF03FEF0EF080B04BEF5A
:101C90000EF04DEF0EF046EF0EF01200010EF1ECDB
:101CA0000CF0080E036ECA0EE82EFED7032EFCD7EA
:101CB000800EF1EC0CF0030E036E980EE82EFED7AA
:101CC000032EFCD7120001500302F3CF05F0F4CF2E
:101CD00006F001500402F350062602500302F350AE
:101CE000062605C001F006C002F012003132332F83
:101CF0003435362A3738392D2A30232B31323341C7
:101D000034353642373839432A302344929089900B
:101D10002F0E016EC00EE82EFED7012EFCD7898053
:101D20000D0EE82EFED700F0928012008D928D905D
:061D30008D941200120068
:020000040020DA
:08000000FFFFFFFFFFFFFFFF00
:020000040030CA
:0E00000000091F1EFF8181FF0FC00FE00F409F
:00000001FF
