:04000000B2EF0DF05E
:100800000054656D70652E204F7074696D610048ED
:10081000756D652E204F7074696D610043205465BD
:100820006D70652E00202048756D652E002E2564A4
:1008300000001EC036F01FC037F020C038F021C0C5
:1008400039F022C03AF023C03BF024C03CF025C070
:100850003DF03DBE2EEF04F031EF04F0010E32EF1B
:1008600004F0000E346E356A34503510D8B43BEFC6
:1008700004F03DEF04F04DEF04F03D1E3C1E3B1E26
:100880003A1E391E381E371E366C000E37223822AB
:1008900039223A223B223C223D22000165BF53EF20
:1008A00004F055EF04F056EF04F0669365BF63EF74
:1008B00004F0655106E16405D8B061EF04F063EF20
:1008C00004F069EF04F0000E316E010E306E6DEF32
:1008D00004F064C030F065C031F062C032F063C033
:1008E00033F034503510D8A478EF04F07AEF04F0E8
:1008F00081EF04F066A57FEF04F081EF04F084EF50
:1009000004F03206D8A03306000E3F6E1F0E3E6E76
:10091000000E8A6F08EF05F03E06D8A03F066B0E6A
:100920003E24D96E000E3F20DA6E36C001F037C08B
:1009300002F038C003F039C004F03AC005F03BC003
:1009400006F03CC007F03DC008F00A0E096E000E2C
:100950000A6E000E0B6E000E0C6E000E0D6E000E79
:100960000E6E000E0F6E000E106E5AEC09F001C0F4
:1009700026F002C027F003C028F004C029F005C00B
:100980002AF006C02BF007C02CF008C02DF026C0BE
:1009900013F028C014F053EC0DF01350300FDF6E3D
:1009A0003006D8A031063206D8A0330636C001F092
:1009B00037C002F038C003F039C004F03AC005F087
:1009C0003BC006F03CC007F03DC008F00A0E096EBF
:1009D000000E0A6E000E0B6E000E0C6E000E0D6EF9
:1009E000000E0E6E000E0F6E000E106E96EC08F0EC
:1009F00001C036F002C037F003C038F004C039F04F
:100A000005C03AF006C03BF007C03CF008C03DF01E
:100A10003FBE13EF05F03F5008E13E04D8A013EFAE
:100A200005F015EF05F046EF05F036503710381099
:100A300039103A103B103C103D10D8A422EF05F0BD
:100A400024EF05F08CEF04F031BE31EF05F03150AA
:100A500006E13004D8B02FEF05F031EF05F08CEF50
:100A600004F033BE3CEF05F0335008E13204D8A067
:100A70003CEF05F03EEF05F046EF05F0000166B3F0
:100A800044EF05F046EF05F08CEF04F034503510DC
:100A9000D8A44DEF05F04FEF05F057EF05F000013A
:100AA00066A555EF05F057EF05F075EF05F03E062A
:100AB000D8A03F0634503510D8A461EF05F063EF9D
:100AC00005F069EF05F0000E2F6E2B0E2E6E6DEF08
:100AD00005F0000E2F6E2D0E2E6E6B0E3E24D96E7D
:100AE000000E3F20DA6E2EC0DFFF1CC011F01DC0CB
:100AF00012F06B0E3E24136E000E3F20146E32C0B7
:100B000015F033C016F0FBEC0AF011C01CF012C057
:100B10001DF01200000E966E000E956E000E000184
:100B2000AC6F000EA76F000EA66F000EA96F000E2F
:100B3000A86F000EAB6F000EAA6F720ED36E0F0E71
:100B4000C16E000E946EF19EE8EC0DF060EC0EF0BC
:100B50000001A7BFB7EF05F0A75107E1020EA65DA0
:100B6000D8B0B5EF05F0B7EF05F0DEEF05F0010EF8
:100B70000A6E080E0B6EA20E0C6E000E0D6E5EEC71
:100B80000BF0020E5F6E040E5E6EBA0EE82EFED7FC
:100B90005E2EFCD75F2EFAD700D00F0E0A6E080E1D
:100BA0000B6EA40E0C6E000E0D6E5EEC0BF0000EC4
:100BB0000001A76F020EA66FFDEF05F0AC51D8A49F
:100BC000E4EF05F0E6EF05F0FAEF05F0A20E076E90
:100BD000000E086E9DEC0BF007C0A8F008C0A9F04D
:100BE000A40E076E000E086E9DEC0BF007C0AAF075
:100BF00008C0ABF0010E0001AC6FAC05D8A403EF48
:100C000006F005EF06F0A8EF05F0AD0E036E000E3E
:100C1000046E93EC0DF0AD0E036E000E046EAE0E7E
:100C2000056E000E066EA8C007F0A9C008F0AAC0A5
:100C300009F0ABC00AF00CEC0AF0AE0E016E000E2B
:100C4000026EAAC003F0ABC004F00AEC0DF0980EDF
:100C5000586E000E596E2E0E5A6E080E5B6EAEC0A8
:100C60005CF05D6A91EC0CF0000E056E980E066E5D
:100C7000000E076E000E73EC0DF0980E586E000E0D
:100C8000596E2D0E5A6E080E5B6E000E5D6E000ED4
:100C90005C6E91EC0CF0250EBAEC0CF0980E586ED0
:100CA000000E596E250E5A6E080E5B6E91EC0CF01C
:100CB000980E036E000E046E09EC0CF0980E586E40
:100CC000000E596E2E0E5A6E080E5B6EADC05CF0B3
:100CD0005D6A91EC0CF0000E056E980E066E000E2B
:100CE000076E020E73EC0DF0980E586E000E596EE2
:100CF0002D0E5A6E080E5B6E000E5D6E000E5C6E61
:100D000091EC0CF0DF0EBAEC0CF0980E586E000E61
:100D1000596E1C0E5A6E080E5B6E91EC0CF0980E1C
:100D2000036E000E046E09EC0CF0060E5F6E130EDF
:100D30005E6EAE0EE82EFED75E2EFCD75F2EFAD783
:100D4000A8EF05F000EF00F0F00E936EF00E8A6E43
:100D50008150F00B00016A6FF00E6A19D8A4B3EF4E
:100D600006F0B5EF06F0A8EF06F08150F00B6A6FC1
:100D7000F00E6A19D8A4BFEF06F0C1EF06F0A8EF95
:100D800006F04E0E016EEB0EE82EFED7012EFCD7BC
:100D900000F0F00E8A6E8150F00B00016A6FF00EC9
:100DA0006A19D8B4D6EF06F0D8EF06F0CBEF06F00C
:100DB0008150F00B6A6FF00E6A19D8B4E2EF06F0BA
:100DC000E4EF06F0CBEF06F04E0E016EEB0EE82ED0
:100DD000FED7012EFCD700F08150F00B00016A6FA6
:100DE000FE0E8A6E8150F00B6A6F6AC068F0F00EDA
:100DF0006A19D8B4FEEF06F000EF07F012EF07F023
:100E0000000E696F07EF07F08150F00B686FF00E6E
:100E10006819D8A40EEF07F010EF07F004EF07F001
:100E200076EF07F0FD0E8A6E8150F00B6A6F6AC094
:100E300068F0F00E6A19D8B420EF07F022EF07F03F
:100E400034EF07F0010E696F29EF07F08150F00BC6
:100E5000686FF00E6819D8A430EF07F032EF07F092
:100E600026EF07F076EF07F0FB0E8A6E8150F00B4D
:100E70006A6F6AC068F0F00E6A19D8B442EF07F0E2
:100E800044EF07F056EF07F0020E696F4BEF07F0E3
:100E90008150F00B686FF00E6819D8A452EF07F07C
:100EA00054EF07F048EF07F076EF07F0F70E8A6E81
:100EB0008150F00B6A6F6AC068F0F00E6A19D8B4FE
:100EC00064EF07F066EF07F0F0EF06F0030E696FCE
:100ED0006DEF07F08150F00B686FF00E6819D8A421
:100EE00074EF07F076EF07F06AEF07F0E00E6A198B
:100EF000D8A47DEF07F07FEF07F08AEF07F0695184
:100F0000040DAF0EF324D96E000EF420DA6EDF501C
:100F1000BBEF07F0D00E6A19D8A491EF07F093EF5A
:100F200007F09EEF07F06951040DB00EF324D96E5F
:100F3000000EF420DA6EDF50BBEF07F0B00E6A1936
:100F4000D8A4A5EF07F0A7EF07F0B2EF07F06951BB
:100F5000040DB10EF324D96E000EF420DA6EDF50CA
:100F6000BBEF07F06951040DB20EF324D96E000EE9
:100F7000F420DA6EDF50120042C0D9FF43C0DAFF1E
:100F8000DECFF6FFDDCFF7FF0800F550250AD8A425
:100F9000CCEF07F0CEEF07F07AEF08F042C0D9FFB0
:100FA00043C0DAFFDE2A000EDD22000E0001636F6F
:100FB000000E626F62C066F063C067F064696569C5
:100FC00042C0D9FF43C0DAFFDECFF6FFDDCFF7FF27
:100FD0000800F550640AD8B4F0EF07F0F2EF07F01C
:100FE00004EF08F042C0D9FF43C0DAFFDECFF6FFBE
:100FF000DDCFF7FF0800F550690AD8A402EF08F02A
:1010000004EF08F044EF08F042C0D9FF43C0DAFF14
:10101000DE2A000EDD2244C0D9FF45C0DAFFDFCF53
:1010200046F0020EDE26DFCF47F0000EDD2246C07E
:10103000D9FF47C0DAFFDECF48F0DDCF49F0000E20
:1010400049BEFF0E4A6E4B6E4C6E4D6E4E6E4F6E2D
:1010500040C01CF041C01DF048C01EF049C01FF048
:101060004AC020F04BC021F04CC022F04DC023F00C
:101070004EC024F04FC025F019EC04F01CC040F025
:101080001DC041F095EF08F042C0D9FF43C0DAFF20
:10109000DECFF6FFDDCFF7FF0800F550250AD8A414
:1010A00054EF08F056EF08F06DEF08F042C0D9FF9A
:1010B00043C0DAFFDE2A000EDD22000E026E250E8E
:1010C000016E40C003F041C004F096EC0AF0000E3F
:1010D000416E010E406E95EF08F042C0D9FF43C04B
:1010E000DAFFDE2A000EDD22000E416E000E406E99
:1010F00095EF08F042C0D9FF43C0DAFFDECFF6FF1C
:10110000DDCFF7FF0800F550016E026A40C003F022
:1011100041C004F096EC0AF042C0D9FF43C0DAFFA8
:10112000DE2A000EDD2267EF08F01200000E126EBC
:1011300010BE9FEF08F09DEF08F0B1EF08F0101E11
:101140000F1E0E1E0D1E0C1E0B1E0A1E096C000E1D
:101150000A220B220C220D220E220F221022010E37
:10116000126E08BEB8EF08F0B6EF08F0CAEF08F04C
:10117000081E071E061E051E041E031E021E016C0D
:10118000000E022203220422052206220722082240
:10119000010E121A20EE13F0070EDE6AE806FDE2D9
:1011A00009500A100B100C100D100E100F1010101B
:1011B000D8B4DDEF08F0DFEF08F031EF09F0010EF1
:1011C000116EEDEF08F0D89009360A360B360C3662
:1011D0000D360E360F361036112A10AEF2EF08F02B
:1011E000F4EF08F0E3EF08F0D89013361436153614
:1011F00016361736183619361A360950015C0A5059
:1012000002580B5003580C5004580D5005580E50FE
:1012100006580F50075810500858D8A012EF09F080
:1012200014EF09F025EF09F00950015E0A50025A47
:101230000B50035A0C50045A0D50055A0E50065AC2
:101240000F50075A1050085A1380D89010320F329E
:101250000E320D320C320B320A320932112EF4EFFB
:1012600008F01250D8B437EF09F039EF09F049EF20
:1012700009F01A1E191E181E171E161E151E141E02
:10128000136C000E1422152216221722182219227E
:101290001A2213C001F014C002F015C003F016C0EA
:1012A00004F017C005F018C006F019C007F01AC006
:1012B00008F01200000E126E08BE63EF09F061EF35
:1012C00009F075EF09F0081E071E061E051E041E14
:1012D000031E021E016C000E0222032204220522BC
:1012E000062207220822010E126E10BE7CEF09F0C2
:1012F0007AEF09F08CEF09F0101E0F1E0E1E0D1E66
:101300000C1E0B1E0A1E096C000E0A220B220C2258
:101310000D220E220F22102209500A100B100C1061
:101320000D100E100F101010D8B499EF09F09BEFAC
:1013300009F0E3EF09F0010E116EA9EF09F0D89062
:1013400009360A360B360C360D360E360F36103689
:10135000112A10AEAEEF09F0B0EF09F09FEF09F0DF
:101360000950015C0A5002580B5003580C500458A5
:101370000D5005580E5006580F5007581050085879
:10138000D8A0C5EF09F0C7EF09F0D7EF09F0095071
:10139000015E0A50025A0B50035A0C50045A0D5069
:1013A000055A0E50065A0F50075A1050085AD89036
:1013B00010320F320E320D320C320B320A32093239
:1013C000112EB0EF09F01250D8B4E9EF09F0EBEFAD
:1013D00009F0FBEF09F0081E071E061E051E041E7D
:1013E000031E021E016C000E0222032204220522AB
:1013F00006220722082201C001F002C002F003C049
:1014000003F004C004F005C005F006C006F007C0F4
:1014100007F008C008F01200010E126E010E136EE4
:10142000FE0E0B6EFF0E0C6E07C00DF008C00EF026
:101430000B500D260C500E2203C0D9FF04C0DAFF5A
:10144000DF500F6E106A0D500F5C1050800A116E45
:101450000E50800A1158D8A030EF0AF032EF0AF08F
:101460004EEF0AF003C0D9FF04C0DAFFDF500B6E65
:101470000C6A020E07240D6E000E08200E6E0B5033
:101480000D5C0E50800A0F6E0C50800A0F58D8B0B9
:101490004CEF0AF04EEF0AF050EF0AF0000E126E19
:1014A000FE0E0B6EFF0E0C6E09C00DF00AC00EF0A2
:1014B0000B500D260C500E2205C0D9FF06C0DAFFD6
:1014C000DF500F6E106A0D500F5C1050800A116EC5
:1014D0000E50800A1158D8A070EF0AF072EF0AF08F
:1014E0008EEF0AF005C0D9FF06C0DAFFDF500B6EA1
:1014F0000C6A020E09240D6E000E0A200E6E0B50AF
:101500000D5C0E50800A0F6E0C50800A0F58D8B038
:101510008CEF0AF08EEF0AF090EF0AF0000E136ED7
:1015200013C001F0125066EC0CF0120003500410CE
:10153000D8B49DEF0AF09FEF0AF0A8EF0AF003502D
:101540000410D8A4A6EF0AF0A8EF0AF0ADEF0AF055
:10155000015064EC0EF0FAEF0AF020EE09F00350AF
:10156000D9260450DA22DE50DE10D8B4BAEF0AF0E1
:10157000BCEF0AF0D7EF0AF020EE09F00350D926AD
:101580000450DA2210EE03F00350E1260450E22268
:10159000DE50E65CE650800A096EDE50800A09588B
:1015A000D8B0D5EF0AF0D7EF0AF0FAEF0AF020EE44
:1015B00003F00350D9260450DA22DECF05F0DDCF48
:1015C00006F003C0D9FF04C0DAFFDECF07F0DDCF9D
:1015D00008F005500724D96E06500820DA6E01C0C5
:1015E000DFFF20EE03F00350D9260450DA22DE2A72
:1015F000000EDD221200000166A101EF0BF003EFE7
:101600000BF00DEF0BF013C00AF014C00BF011C07B
:101610000CF012C00DF031EC0DF016BE12EF0BF015
:1016200014EF0BF01AEF0BF015C01AF016C01BF0F8
:101630001EEF0BF0000E1B6E000E1A6E000E196EE0
:10164000000E186E30EF0BF0000E026E200E016ED1
:1016500011C003F012C004F096EC0AF0184A192ADF
:101660001A50185C1950800A176E1B50800A1758C0
:10167000D8A03DEF0BF03FEF0BF024EF0BF0000193
:1016800066B145EF0BF047EF0BF051EF0BF013C0D5
:101690000AF014C00BF011C00CF012C00DF031ECC8
:1016A0000DF013C001F014C002F0CDEC0DF01A5093
:1016B0000124116E1B500220126E120018EC0EF065
:1016C000000E056E0AC006F00BC007F0000E73ECAA
:1016D0000DF0C00EE2EC0CF0000E126E000E116E5A
:1016E000A4EC06F0106E1050BAEC0CF011500C2463
:1016F000D96E12500D20DA6E10C0DFFF114A122A87
:1017000012BE8CEF0BF0125009E1020E115CD8A052
:101710008CEF0BF08EEF0BF070EF0BF0020E0F6EF4
:10172000040E0E6EBA0EE82EFED70E2EFCD70F2E2C
:10173000FAD700D018EC0EF01200000E0B6E000E5F
:101740000A6E000E0D6E000E0C6E07C0D9FF08C0A9
:10175000DAFFDF50096ED00E09240E6E0F6AFF0EFD
:101760000F2220EE01F00750D9260850DA22DF5070
:10177000096ED00E09240A6E0B6AFF0E0B220EC0F2
:1017800001F00FC002F0000E046E0A0E036E2DEC85
:101790000EF001C00EF002C00FF00A500E240C6EC5
:1017A0000B500F200D6E0CC007F00DC008F012009A
:1017B00052C056F053C057F0000E0001616F000E8A
:1017C000606FF6EF0BF050C040F051C041F0560E84
:1017D000426E000E436E54C044F055C045F0BCEC60
:1017E00007F04050000160274150612356C0F6FFCA
:1017F00057C0F7FF0800F5500009D8A402EF0CF01D
:1018000004EF0CF0E3EF0BF060C050F061C051F05A
:1018100012001FEF0CF003C0F6FF04C0F7FFF86AD8
:10182000070EF76403D00800F55005D0F6CFE1FFAE
:10183000F7CFE2FFE750BAEC0CF0034A042A03C0EA
:10184000F6FF04C0F7FFF86A070EF76403D008003C
:10185000F55005D0F6CFE1FFF7CFE2FFE7500009E2
:10186000D8A435EF0CF037EF0CF00BEF0CF01200B2
:10187000000E026E000E016E80A041EF0CF043EFEF
:101880000CF03CEF0CF0140EE82EFED780A04BEFCE
:101890000CF04DEF0CF051EF0CF0D880023654EF05
:1018A0000CF002500224026E80B059EF0CF05BEF96
:1018B0000CF054EF0CF0012A070E016462EF0CF0FB
:1018C00064EF0CF03CEF0CF002501200026E60EC82
:1018D0000EF00250D8A46FEF0CF071EF0CF07CEF1B
:1018E0000CF00150D8A477EF0CF079EF0CF07CEFFE
:1018F0000CF08D8090EF0CF00250D8B482EF0CF019
:1019000084EF0CF08CEF0CF00150D8A48AEF0CF0AF
:101910008CEF0CF08FEF0CF08D8290EF0CF08D843B
:1019200012005C0E00018B6F000E8C6F58C08DF0A2
:1019300059C08EF0000E916F000E906F000E976FE1
:10194000000E966F8D0E506E000E516E5AC052F002
:101950005BC053F08B0E546E000E556ED8EC0BF03E
:10196000000190515824D96E91515920DA6E000E21
:10197000DF6E1200026E02C001F0F00E01168C50F4
:101980000F0B01108C6E8C808C8200F08C92030EF9
:10199000016E980EE82EFED7012EFCD702C001F092
:1019A000013AF00E01168C500F0B01108C6E8C82D8
:1019B00000F08C92080E016ECA0EE82EFED7012EA2
:1019C000FCD71200026E02C001F0F00E01168C501E
:1019D0000F0B01108C6E8C908C8200F08C92030E99
:1019E000016E980EE82EFED7012EFCD702C001F042
:1019F000013AF00E01168C500F0B01108C6E8C8288
:101A000000F08C92080E016ECA0EE82EFED7012E51
:101A1000FCD71200FE0E056EFF0E066E03C007F027
:101A200004C008F0055007260650082201C0D9FF5F
:101A300002C0DAFFDF50096E0A6A0750095C0A50DB
:101A4000800A0B6E0850800A0B58D8B02AEF0DF0B0
:101A50002CEF0DF02FEF0DF08B8030EF0DF08B9011
:101A60001200000E106E000E0F6E42EF0DF00EC051
:101A700001F0026A0CC003F00DC004F096EC0AF00D
:101A80000F4A102A0F500A24D96E10500B20DA6E1C
:101A9000DF500E6E0E50D8A450EF0DF052EF0DF047
:101AA00037EF0DF0120014BE60EF0DF0145006E198
:101AB0001304D8B05EEF0DF060EF0DF06EEF0DF097
:101AC00013C015F014C016F0151E161E154A162A5E
:101AD00015C013F016C014F072EF0DF013C013F020
:101AE00014C014F01200086E020E08607AEF0DF0B8
:101AF0007CEF0DF085EF0DF005500F0B8009096E9E
:101B00000950E2EC0CF08CEF0DF005500F0BC00902
:101B1000096E0950E2EC0CF006C003F007C004F0B7
:101B200009EC0CF0120050EC0EF002EC0EF038EC68
:101B30000CF0056E38EC0CF038EC0CF0066E38EC5E
:101B40000CF038EC0CF003C0D9FF04C0DAFF06C07B
:101B5000DFFF20EE01F00350D9260450DA2205C041
:101B6000DFFF1200800EF66E1C0EF76E000EF86E90
:101B700000EEAFF010EE20F00900F5CFEEFFE550DB
:101B8000E150FAE100EE60F02B0EEE6AE806FDE1AE
:101B9000000EF86E00018AEF05F001C003F002C0EC
:101BA00004F0D5EF0DF0014A022A01C0D9FF02C0AE
:101BB000DAFFDF50D8A4DFEF0DF0E1EF0DF0D3EF47
:101BC0000DF00350015C016E04500258026E1200C9
:101BD000000E956E270E036EF50EE82EFED7032E2F
:101BE000FCD700F0020EE2EC0CF0280EE2EC0CF058
:101BF000010EE2EC0CF00C0EE2EC0CF0060EE2EC46
:101C00000CF0120080B007EF0EF009EF0EF002EFBB
:101C10000EF080A00EEF0EF010EF0EF009EF0EF0B8
:101C200080B015EF0EF017EF0EF010EF0EF012006F
:101C3000010EE2EC0CF0080E036ECA0EE82EFED781
:101C4000032EFCD7800EE2EC0CF0030E036E980E10
:101C5000E82EFED7032EFCD7120001500302F3CF6B
:101C600005F0F4CF06F001500402F35006260250AE
:101C70000302F350062605C001F006C002F0120070
:101C80003132332F3435362A3738392D2A30232B49
:101C90003132334134353642373839432A302344E0
:101CA000929089902F0E016EC00EE82EFED7012E65
:101CB000FCD789800D0EE82EFED700F0928012002E
:0A1CC0008D928D908D941200120099
:020000040020DA
:08000000FFFFFFFFFFFFFFFF00
:020000040030CA
:0E00000000091F1EFF8181FF0FC00FE00F409F
:00000001FF
